:020000040800F2
:1000000000500020F1030008350400083504000802
:10001000350400083504000835040008000000001D
:10002000000000000000000000000000350400088F
:1000300035040008000000003504000855010008E0
:1000400087010008890100088B0100088D01000864
:100050008F01000891010008930100089501000834
:1000600097010008990100089B010008F9010008A8
:1000700009020008190200082902000839020008D4
:1000800049020008590200089D0100089F0100086C
:10009000A1010008A3010008A5010008A7010008AC
:1000A000A9010008AB010008AD010008AF0100087C
:1000B000B1010008B3010008B5010008B70100084C
:1000C000B9010008BB010008BD010008BF0100081C
:1000D000C1010008C9010008D9010008E9010008B0
:1000E000C3010008C5010008C701000800000000A6
:1000F0000000000000000000000000000000000000
:0C01000000000000000000005FF808F1A3
:10010C0010B5064C2378002B07D1054B002B02D0E1
:10011C000448AFF300800123237010BD00000020C1
:10012C000000000080040008044B10B5002B03D025
:10013C0003490448AFF3008010BDC0460000000026
:10014C000400002080040008054B10B51C68002C2E
:10015C0005D0236820001B689847A468F7E710BDFA
:10016C004400002010B50468002C05D02368200042
:10017C001B6898476468F7E710BDFEE7FEE7FEE7EB
:10018C00FEE7FEE7FEE7FEE7FEE7FEE7FEE7FEE73B
:10019C00FEE7FEE7FEE7FEE7FEE7FEE7FEE7FEE72B
:1001AC00FEE7FEE7FEE7FEE7FEE7FEE7FEE7FEE71B
:1001BC00FEE7FEE7FEE7FEE7FEE7FEE710B50248C6
:1001CC00FFF7D0FF10BDC0463800002010B5024824
:1001DC00FFF7C8FF10BDC0463C00002010B5024818
:1001EC00FFF7C0FF10BDC0464000002010B502480C
:1001FC00FFF7B8FF10BDC0461C00002010B5024828
:10020C00FFF7B0FF10BDC0462000002010B502481B
:10021C00FFF7A8FF10BDC0462400002010B502480F
:10022C00FFF7A0FF10BDC0462800002010B5024803
:10023C00FFF798FF10BDC0462C00002010B50248F7
:10024C00FFF790FF10BDC0463000002010B50248EB
:10025C00FFF788FF10BDC046340000200422F0B523
:10026C000124F025A0214748474F43688369CFB04C
:10027C0013438361836923438361444B5E68AE43BC
:10028C0031435960816911438161816921438161E5
:10029C00A0215E6809013E40314359600821836901
:1002AC003B4E0B4383613368AB43D03D2B433360F0
:1002BC0083690B43836133683B408027BF001F4336
:1002CC0037608027334E344B0196344E00930296A0
:1002DC008669FF013E438661DE683143D960D96887
:1002EC000A43DA60802259691143596140215E69E1
:1002FC00314359611021DE680E43DE60DE68B4467E
:10030C0080266746B6013E43DE60254E254F75605C
:10031C004569019B2543456118680CADA0431860E5
:10032C001868214C084318600098DD600430986010
:10033C001868BC461043186018682040186018688C
:10034C003840186018680700022038431860802372
:10035C00DB013360029B1868884318600099DD60EC
:10036C0004319960FF215960196800200A436146E5
:10037C001A601A6814401C601A680A401A604FB060
:10038C00F0BDC04600100240FFF0FFFF0008014026
:10039C00000C01404400024000380140580002406B
:1003AC0000E100E0FFFCFFFFFFF3FFFF00220A4B20
:1003BC000A491A605A600A4B59609A6019680432EB
:1003CC000A431A60022219680A431A60012219684A
:1003DC000A431A607047C046440000203F190100D0
:1003EC0010E000E0002103E00A4B5B58435004315D
:1003FC0009480A4B42189A42F6D3094A02E00023F4
:10040C0042F8043B074B9A42F9D300F00FF8FFF780
:10041C0025FF7047A4040008000000200000002005
:10042C00000000204C000020FEE7000070B5002604
:10043C000C4D0D4C641BA410A64209D1002600F0F3
:10044C0019F80A4D0A4C641BA410A64205D170BDC4
:10045C00B300EB5898470136EEE7B300EB589847DA
:10046C000136F2E798040008980400089804000884
:10047C00A0040008F8B5C046F8BC08BC9E467047FE
:0C048C00F8B5C046F8BC08BC9E4670479E
:0804980035010008B90300085A
:0404A0000D01000842
:04000005080003F1FB
:00000001FF
