:020000040800F2
:1000000000500020590100089D0100089D010008D2
:100010009D0100089D0100089D01000800000000EE
:100020000000000000000000000000009D0100082A
:100030009D010008000000009D0100089D010008CE
:100040009D0100089D0100089D0100089D01000818
:100050009D0100089D0100089D0100089D01000808
:100060009D0100089D0100089D0100089D010008F8
:100070009D0100089D0100089D0100089D010008E8
:100080009D0100089D0100089D0100089D010008D8
:100090009D0100089D0100089D0100089D010008C8
:1000A0009D0100089D0100089D0100089D010008B8
:1000B0009D0100089D0100089D0100089D010008A8
:1000C0009D0100089D0100089D0100089D01000898
:1000D0009D0100089D0100089D0100089D01000888
:1000E0009D0100089D0100089D010008000000001E
:1000F0000000000000000000000000000000000000
:0C01000000000000000000005FF808F1A3
:10010C0010B5064C2378002B07D1054B002B02D0E1
:10011C000448AFF300800123237010BD00000020C1
:10012C0000000000E8010008044B10B5002B03D0C0
:10013C0003490448AFF3008010BDC0460000000026
:10014C0004000020E801000800207047002103E0B3
:10015C000A4B5B584350043109480A4B42189A42E7
:10016C00F6D3094A02E0002342F8043B074B9A42BB
:10017C00F9D300F00FF8FFF7E7FF7047080200080B
:10018C000000002000000020000000201C000020C7
:10019C00FEE7000070B500260C4D0D4C641BA4103E
:1001AC00A64209D1002600F019F80A4D0A4C641B2E
:1001BC00A410A64205D170BDB300EB589847013688
:1001CC00EEE7B300EB5898470136F2E7000200085F
:1001DC00000200080002000804020008F8B5C0463E
:1001EC00F8BC08BC9E467047F8B5C046F8BC08BCC5
:0401FC009E46704764
:0402000035010008BC
:040204000D010008E0
:040000050800015995
:00000001FF
