:020000040800F2
:1000000000500020F90200083D0300083D030008ED
:100010003D0300083D0300083D0300080000000008
:100020000000000000000000000000003D03000888
:100030003D030008000000003D03000855010008D2
:100040003D0300083D0300083D0300083D03000890
:100050003D0300083D0300083D0300083D03000880
:100060003D0300083D0300083D0300083D03000870
:100070003D0300083D0300083D0300083D03000860
:100080003D0300083D0300083D0300083D03000850
:100090003D0300083D0300083D0300083D03000840
:1000A0003D0300083D0300083D0300083D03000830
:1000B0003D0300083D0300083D0300083D03000820
:1000C0003D0300083D0300083D0300083D03000810
:1000D0003D0300083D0300083D0300083D03000800
:1000E0003D0300083D0300083D0300080000000038
:1000F0000000000000000000000000000000000000
:0C01000000000000000000005FF808F1A3
:10010C0010B5064C2378002B07D1054B002B02D0E1
:10011C000448AFF300800123237010BD00000020C1
:10012C000000000088030008044B10B5002B03D01E
:10013C0003490448AFF3008010BDC0460000000026
:10014C000400002088030008054B10B51C68002C27
:10015C0005D0236820001B689847A468F7E710BDFA
:10016C001C0000200422F0B50124F025A0214748F2
:10017C00474F43688369CDB013438361836923433D
:10018C008361444B5E68AE433143596081691143CE
:10019C008161816921438161A0215E6809013E4032
:1001AC0031435960082183693B4E0B4383613368AB
:1001BC00AB43D03D2B43336083690B43836133687E
:1001CC003B408027BF001F4337608027334E344BA2
:1001DC000196344E009302968669FF013E43866178
:1001EC00DE683143D960D9680A43DA6080225969E4
:1001FC001143596140215E69314359611021DE6818
:10020C000E43DE60DE68B44680266746B6013E4388
:10021C00DE60254E254F75604569019B2543456180
:10022C0018680CADA04318601868214C084318607E
:10023C000098DD60043098601868BC461043186064
:10024C001868204018601868384018601868070053
:10025C000220384318608023DB013360029B18684E
:10026C00884318600099DD6004319960FF21596062
:10027C00196800200A4361461A601A6814401C6011
:10028C001A680A401A604DB0F0BDC046001002401A
:10029C00FFF0FFFF00080140000C01404400024049
:1002AC00003801405800024000E100E0FFFCFFFF75
:1002BC00FFF3FFFF00220A4B0A491A605A600A4BEF
:1002CC0059609A60196804320A431A60022219684C
:1002DC000A431A60012219680A431A607047C04623
:1002EC001C0000203F19010010E000E0002103E099
:1002FC000A4B5B584350043109480A4B42189A4246
:10030C00F6D3094A02E0002342F8043B074B9A4219
:10031C00F9D300F00FF8FFF725FF7047AC03000886
:10032C00000000200000002000000020240000201D
:10033C00FEE7000070B500260C4D0D4C641BA4109C
:10034C00A64209D1002600F019F80A4D0A4C641B8C
:10035C00A410A64205D170BDB300EB5898470136E6
:10036C00EEE7B300EB5898470136F2E7A00300081C
:10037C00A0030008A0030008A8030008F8B5C046B5
:10038C00F8BC08BC9E467047F8B5C046F8BC08BC23
:04039C009E467047C2
:0803A00035010008C10200084C
:0403A8000D0100083B
:04000005080002F9F4
:00000001FF
