:020000040800F2
:1000000000500020010300084503000845030008D4
:1000100045030008450300084503000800000000F0
:100020000000000000000000000000004503000880
:1000300045030008000000004503000855010008C2
:100040004503000845030008450300084503000870
:100050004503000845030008450300084503000860
:100060004503000845030008450300084503000850
:100070004503000845030008450300084503000840
:100080004503000845030008450300084503000830
:100090004503000845030008450300084503000820
:1000A0004503000845030008450300084503000810
:1000B0004503000845030008450300084503000800
:1000C00045030008450300084503000845030008F0
:1000D00045030008450300084503000845030008E0
:1000E0004503000845030008450300080000000020
:1000F0000000000000000000000000000000000000
:0C01000000000000000000005FF808F1A3
:10010C0010B5064C2378002B07D1054B002B02D0E1
:10011C000448AFF300800123237010BD00000020C1
:10012C000000000090030008044B10B5002B03D016
:10013C0003490448AFF3008010BDC0460000000026
:10014C000400002090030008054B10B51C68002C1F
:10015C0005D0236820001B689847A468F7E710BDFA
:10016C001C00002004200121F0B5F025494B80270C
:10017C005A689A69CDB002439A619A69FF010A43A1
:10018C009A61454A5468AC432500A0242C43546022
:10019C009C69424D04439C619C690C439C6154686E
:1001AC002540A02424012C430F2554609C69044352
:1001BC009C615468AC430D3D2C4354609C692E00EB
:1001CC0004439C615468364D25408024A4022C4382
:1001DC005460344C344A0194344C009202949C691F
:1001EC003C439C6108248027D5682C43D460D46898
:1001FC002043D060506938435061402054692043FB
:10020C0050611020D4680443D4608024D568A401C4
:10021C002C43D4602022264C264D6260A4465C6997
:10022C00019A0C435C6114688C4314601468044399
:10023C0014600CACD460009C0434946014683C438F
:10024C00146014682C40146014681B4D2C4014600E
:10025C0014683443146080226446D20122605C69C5
:10026C00029A214359611368124E834313600CABFD
:10027C00D360009B002004339360FF23536013680A
:10028C003B43136013681E40166013681D401560D5
:10029C004DB0F0BD0010024000080140FFF0FFFF20
:1002AC00FFFFF0FF440002400038014058000240BC
:1002BC0000E100E0FFF3FFFFFFFCFFFF00220A4B11
:1002CC000A491A605A600A4B59609A6019680432DC
:1002DC000A431A60022219680A431A60012219683B
:1002EC000A431A607047C0461C0000203F190100E9
:1002FC0010E000E0002103E00A4B5B58435004314E
:10030C0009480A4B42189A42F6D3094A02E00023E4
:10031C0042F8043B074B9A42F9D300F00FF8FFF771
:10032C0021FF7047B40300080000002000000020EB
:10033C000000002024000020FEE7000070B500261D
:10034C000C4D0D4C641BA410A64209D1002600F0E4
:10035C0019F80A4D0A4C641BA410A64205D170BDB5
:10036C00B300EB5898470136EEE7B300EB589847CB
:10037C000136F2E7A8030008A8030008A803000848
:10038C00B0030008F8B5C046F8BC08BC9E467047E0
:0C039C00F8B5C046F8BC08BC9E4670478F
:0803A80035010008C90200083C
:0403B0000D01000833
:0400000508000301EB
:00000001FF
