:020000040800F2
:10000000005000205D050008A5050008A5050008B2
:10001000A5050008A5050008A505000800000000CA
:10002000000000000000000000000000A50500081E
:10003000A505000800000000A5050008A5050008AA
:10004000A5050008A5050008A5050008A5050008E8
:10005000A5050008A5050008A5050008A5050008D8
:10006000A5050008A5050008A5050008A5050008C8
:10007000A5050008A5050008A5050008A5050008B8
:10008000A5050008A5050008A5050008A5050008A8
:10009000A5050008A5050008A5050008A505000898
:1000A000A5050008A5050008A5050008A505000888
:1000B000A5050008A5050008A5050008A505000878
:1000C000A5050008A5050008A5050008A505000868
:1000D000A5050008A5050008A5050008A505000858
:1000E000A5050008A5050008A505000800000000FA
:1000F0000000000000000000000000000000000000
:0C01000000000000000000005FF808F1A3
:10010C0010B5064C2378002B07D1054B002B02D0E1
:10011C000448AFF300800123237010BD00000020C1
:10012C000000000000060008044B10B5002B03D0A3
:10013C0003490448AFF3008010BDC0460000000026
:10014C000400002000060008054B1A00FC32516820
:10015C004018CB185060FF2800D9002318007047B6
:10016C001C000020012302684068116983400B4386
:10017C00136170470123426810B510329340016837
:10018C000C6923430B6110BD10B504000068FFF728
:10019C00E9FF2068FFF7EEFF10BD10B50C1E03D071
:1001AC00FFF7E0FF200010BDFFF7E4FFFAE770B5A2
:1001BC0004000D1E0ED18069FFF7DCFF6069FFF7AC
:1001CC00D9FF29002069FFF7E8FF0100E068FFF77D
:1001DC00E4FF70BD02290AD10069FFF7C3FFA069D3
:1001EC00FFF7C8FF6069FFF7C5FF0021EEE708299C
:1001FC0007D18069FFF7B6FF6069FFF7BBFF206985
:10020C00F1E70F290AD18069FFF7ACFF6069FFF7AE
:10021C00A9FF2069FFF7A6FF0121D7E70629D8D14E
:10022C004069FFF79FFF2069FFF79CFFA069FFF76C
:10023C00A1FFE068FFF79EFFCBE770B50400250037
:10024C004068FFF797FF2068FFF794FFA068FFF75F
:10025C0091FF2069FFF786FFE068FFF783FFA06935
:10026C000835FFF787FF6069FFF784FF2800FFF769
:10027C008BFF2069FFF776FFE068FFF773FFA0693B
:10028C00FFF778FF6069FFF775FF2800FFF77CFF29
:10029C002069FFF767FFE068FFF764FFA069FFF7CD
:1002AC0069FF6069FFF766FF2800FFF76DFF022109
:1002BC002000FFF77CFF2800FFF766FF02212000DB
:1002CC00FFF775FF2800FFF75FFF08212000FFF7FD
:1002DC006EFF2800FFF758FF00212000FFF767FF93
:1002EC002800FFF751FF0F212000FFF760FF2800C7
:1002FC00FFF74AFF00212000FFF759FF2800FFF706
:10030C0043FF06212000FFF752FF2800FFF73CFFB8
:10031C0000212000FFF74BFF2800FFF735FF0821D5
:10032C002000FFF744FF2800FFF72EFF00212000DC
:10033C00FFF73DFF2800FFF727FF02212000FFF702
:10034C0036FF2800FFF720FF70BD000010221F4B66
:10035C0019680A4307211A601A688A43110002229D
:10036C000A431A6080221A4B520219680A431A6017
:10037C001A689203FCD5F0215A688A435A605A686D
:10038C00144911408022D2000A435A605A6812491B
:10039C000A405A608022596852020A435A605A68CD
:1003AC000E491140E02252030A435A608022196818
:1003BC0052040A431A601A689201FCD503215A6848
:1003CC008A43110002220A435A60704700200240FF
:1003DC0000100240FFF8FFFFFFC7FFFFFFFFC3FF46
:1003EC00F0B5082087B0FFF7AFFE0C238026474AF4
:1003FC00474D019002604360A96904330B43AB6124
:10040C005368444FB6023B40334353600820FFF718
:10041C009BFE0222404B029003604260A9691E328F
:10042C000A43AA611A683D490820114080229200B3
:10043C000A431A60FFF788FE03230822384C039006
:10044C0004604360AB6908201343AB612368354AF1
:10045C001A4080239B0113432360FFF775FE04238E
:10046C000822049004604360AB6910001343AB6135
:10047C0023681F403E432660FFF766FE05230826CF
:10048C00059004604360AB69274A3343AB61236832
:10049C0030001A4080239B0313432360FFF754FE64
:1004AC00062304604360AB69204A3343AB61236885
:1004BC0007001A4080239B04134323603000FFF78E
:1004CC0043FE0723082204604360AB690600134314
:1004DC008022AB61236892051B011B091343236027
:1004EC001C20FFF731FE0400019B47610360029B57
:1004FC0086614360039B8360049BC360059B03611F
:10050C00FFF79BFE200007B0F0BDC0460010014075
:10051C0000100240FFFFF0FF00140140FFF0FFFF4E
:10052C00000C0140FF0FFFFFFFFF0FFFFFFFFFF06D
:10053C0010B5FFF755FF002010BD0000822210B54A
:10054C0052000021014800F04DF810BD1C000020A5
:10055C00002103E00B4B5B58435004310A480B4B12
:10056C0042189A42F6D30A4A02E0002342F8043BAE
:10057C00084B9A42F9D3FFF7E9FE00F00FF8FFF7AA
:10058C00D7FF704724060008000000200000002060
:10059C000000002020010020FEE7000070B50026BE
:1005AC000C4D0D4C641BA410A64209D1002600F082
:1005BC0021F80A4D0A4C641BA410A64205D170BD4B
:1005CC00B300EB5898470136EEE7B300EB58984769
:1005DC000136F2E71806000818060008180600088D
:1005EC002006000803001218934200D170471970BE
:1005FC000133F9E7F8B5C046F8BC08BC9E46704715
:0C060C00F8B5C046F8BC08BC9E4670471C
:08061800350100084905000846
:040620000D010008C0
:040000050800055D8D
:00000001FF
