:020000040800F2
:1000000000500020D10D0008190E0008190E00083C
:10001000190E0008190E0008190E00080000000053
:10002000000000000000000000000000190E0008A1
:10003000190E000800000000190E000889020008CF
:10004000F3030008F5030008F7030008F9030008AC
:10005000FB030008FD030008FF030008010400087B
:100060000304000805040008070400087D040008D4
:1000700099040008B5040008D5040008F504000838
:100080001505000835050008090400080B040008E0
:100090000D0400080F0400081104000813040008F0
:1000A0001504000817040008190400081B040008C0
:1000B0001D0400081F040008210400082304000890
:1000C0002504000827040008290400082B04000860
:1000D0002D040008350400084D04000865040008DC
:1000E0002F04000831040008330400080000000059
:1000F0000000000000000000000000000000000000
:0C01000000000000000000005FF808F1A3
:10010C0010B5064C2378002B07D1054B002B02D0E1
:10011C000448AFF300800123237010BD00000020C1
:10012C0000000000840E0008044B10B5002B03D017
:10013C0003490448AFF3008010BDC0460000000026
:10014C0004000020840E000802B4714649084900DE
:10015C00095C49008E4402BC7047C046002243082B
:10016C008B4274D303098B425FD3030A8B4244D373
:10017C00030B8B4228D3030C8B420DD3FF220902B5
:10018C0012BA030C8B4202D31212090265D0030B74
:10019C008B4219D300E0090AC30B8B4201D3CB036A
:1001AC00C01A5241830B8B4201D38B03C01A5241AC
:1001BC00430B8B4201D34B03C01A5241030B8B42AE
:1001CC0001D30B03C01A5241C30A8B4201D3CB0299
:1001DC00C01A5241830A8B4201D38B02C01A52417E
:1001EC00430A8B4201D34B02C01A5241030A8B4281
:1001FC0001D30B02C01A5241CDD2C3098B4201D399
:10020C00CB01C01A524183098B4201D38B01C01A16
:10021C00524143098B4201D34B01C01A524103098D
:10022C008B4201D30B01C01A5241C3088B4201D33C
:10023C00CB00C01A524183088B4201D38B00C01AE9
:10024C00524143088B4201D34B00C01A5241411A10
:10025C0000D20146524110467047FFE701B500201D
:10026C0000F006F802BDC0460029F7D076E77047CB
:10027C007047C046C3690133C3617047054B10B565
:10028C001C68002C05D0236820001B689847A468C4
:10029C00F7E710BD08020020037B002B0DD00023D4
:1002AC00426803738368002A0ED0002B08D0936039
:1002BC0083685A6000234360836070470B60F8E7E3
:1002CC00044993604A60F5E70249002BF6D10B60B4
:1002DC004B60EFE708020020037B002B0CD10133AD
:1002EC000373064B5A684260002A00D090601A686B
:1002FC005860002A00D118607047C04608020020E0
:10030C0010B58068026913691B68DB060DD50021E6
:10031C009369FC325B6851629BB2FF31CB1A8B4202
:10032C0000D90B009362FFF7D7FF10BD10B5040086
:10033C00072A19D1204B5B689B045B0F1CD0042B44
:10034C001CD0052B1CD0063B5A1E93411B4A5B420A
:10035C0013401B4A9B1807291AD80800FFF7F4FE14
:10036C00121A1C1F21242629083A0023012AF2D82C
:10037C00114B5B685B05E0E7124BECE7124BEAE7CD
:10038C00124BE8E7962189011800FFF7E7FEA06001
:10039C00200010BDE121F6E79621C901F4E7E12127
:1003AC00FBE796210902EFE7E121FBE796214902E1
:1003BC00EAE7E121FBE7C04600100240E055BBFF35
:1003CC004054890000A24A040051250280A8120161
:1003DC0010B50468002C05D0236820001B689847D2
:1003EC006468F7E710BDFEE7FEE7FEE7FEE7FEE711
:1003FC00FEE7FEE7FEE7FEE7FEE7FEE7FEE7FEE7C9
:10040C00FEE7FEE7FEE7FEE7FEE7FEE7FEE7FEE7B8
:10041C00FEE7FEE7FEE7FEE7FEE7FEE7FEE7FEE7A8
:10042C00FEE7FEE7FEE7FEE710B50348FFF7D0FF57
:10043C00024B1A685B6810BDFC01002000380140BB
:10044C0010B50348FFF7C4FF024B1A685B6810BD78
:10045C00000200200044004010B50348FFF7B8FF2D
:10046C00024B1A685B6810BD040200200048004073
:10047C0010B50448FFF7ACFF0123034A51680B4346
:10048C00536010BDE00100200000024010B504488C
:10049C00FFF79EFF1023034A51680B43536010BDB6
:1004AC00E40100200000024010B50548FFF790FF62
:1004BC008023044A5B0051680B43536010BDC04657
:1004CC00E80100200000024010B50548FFF780FF4E
:1004DC008023044A5B0151680B43536010BDC04636
:1004EC00EC0100200000024010B50548FFF770FF3A
:1004FC008023044A5B0251680B43536010BDC04615
:10050C00F00100200000024010B50548FFF760FF25
:10051C008023044A5B0351680B43536010BDC046F3
:10052C00F40100200000024010B50548FFF750FF11
:10053C008023044A5B0451680B43536010BDC046D2
:10054C00F80100200000024010221F4B19680A43DA
:10055C0007211A601A688A43110002220A431A60A2
:10056C0080221A4B520219680A431A601A689203C5
:10057C00FCD5F0215A688A435A605A6814491140D4
:10058C008022D2000A435A605A6812490A405A60C3
:10059C008022596852020A435A605A680E49114027
:1005AC00E02252030A435A608022196852040A431B
:1005BC001A601A689201FCD503215A688A4311000B
:1005CC0002220A435A607047002002400010024089
:1005DC00FFF8FFFFFFC7FFFFFFFFC3FFF8B50126C2
:1005EC00844B854C1B78BFF35B8F334200D09FE06C
:1005FC00804800F00CFC002800D199E07F4D2B784E
:10060C00BFF35B8F7E4F33420BD1280000F0FFFB12
:10061C00002806D07B4B28003B6009237B6000F050
:10062C0003FC04230121A269774D1343F022A3613B
:10063C00A36938680B43A361436893431A00A02352
:10064C00134343602B78BFF35B8F0B420CD1280014
:10065C0000F0DDFB002807D06A4B6C4A28001360C1
:10066C000A23536000F0E0FB04230121A269684DCA
:10067C001343A361654B674A1868A3690B43A361D5
:10068C0043681A40A0231B01134343602B78BFF32C
:10069C005B8F614E0B420BD1280000F0B8FB002899
:1006AC0006D0584B280033600B23736000F0BCFB62
:1006BC000423A2691343A3613168584A4B681A405A
:1006CC0080239B0113434B60554B1B78BFF35B8F0F
:1006DC00544DDB070BD4524800F099FB002806D090
:1006EC00484B4F482B600C236B6000F09DFB0423A0
:1006FC00A26940481343A36129684B4A4B681A40CE
:10070C0080239B0213434B60404A484B5A60484A33
:10071C001F601A61474A9E605A61474ADD609A61C0
:10072C000722DA610022FC335A629A6200F07CFBE9
:10073C008022A369D201134308223C48A3610369B8
:10074C003E4FD9680A43DA600422D9680A43DA605A
:10075C00802259691143596140215D6929435961CE
:10076C001021DD680D43DD608025DE68AD01354369
:10077C00DD60202306007B6065691F3B2B436361B2
:10078C004369FC361C682E4D0C431C60746A64195A
:10079C00DC6004692B4D04349C601C68AC4614432B
:1007AC001C601C682C401C601C68274D2C401C6075
:1007BC001C68250002242C431C608023DB013B6059
:1007CC008369214D1C688C431C60716A1C4C09198F
:1007DC00D960016904319960FF21596019680A4395
:1007EC0061461A601A680A401A601A6815401D6042
:1007FC00F8BDC0461C000020001002406C01002017
:10080C0070010020000801406001002064010020FC
:10081C0054010020FFF0FFFF58010020FF0FFFFFE5
:10082C00480100204C010020FFFFF0FF20000020B9
:10083C0000380140440002405800024000E100E052
:10084C0040000020FFF3FFFFFFFCFFFF030000222E
:10085C00FC3330B55A629A62C3681C68596801232C
:10086C001A0010318A4025692A4322611A008168D6
:10087C000C684968256910318A402A432261416914
:10088C000A689A430A608269116899431160116879
:10089C000B4313601368DB07FCD530BD10B58368C0
:1008AC00186903691B685B0601D5FFF7CFFF10BD04
:1008BC00FF23F0B51D00064F064E0C7801315C404D
:1008CC003B5D6B40355D8A42F7D105704370F0BDDE
:1008DC009C0E00089C0F0008020010B5FC325368F7
:1008EC00946800219C4202D9591C5160C15C0800DB
:1008FC0010BD0300FC339A68FE2A04D80978815491
:10090C009A6801329A60704713B50A0A01AB1A70E3
:10091C00597019000400FFF7ECFF6B46591DFFF7E7
:10092C00E8FF200016BD012330B5C4682168626859
:10093C001C00944022000D692A430A6184682168D6
:10094C0062681C00944022000D692A430A61816987
:10095C000A689A430A604269FC3011689943116035
:10096C00816A406A091A89B2516011680B4313609D
:10097C001368DB07FCD530BDF7B500220E00010073
:10098C0003690400FC335A629A620069243101AD98
:10099C002030012E27D1FFF7ACFF6B46D91CA31DCD
:1009AC00DA7F80235B4213430B70FFF7A2FF2E709C
:1009BC002900FFF79EFF236928001900FC339A6A6F
:1009CC005B6A20318A18C918FFF772FF6B462069E1
:1009DC00591D2030FFF78DFF2900FFF78AFF206992
:1009EC00FFF7A1FFF7BD27002537022E03D1FFF734
:1009FC0080FF3900D9E7FFF77CFF3900FFF779FF5B
:100A0C0003232B70D4E7020070B5FC325368926854
:100A1C00013304000D009A4209D9FFF75DFF06006F
:100A2C002000FFF759FF3602C0B230432880200067
:100A3C0070BD0000F0B585B0FFF7D0FD0127C84EA2
:100A4C0001903578BFF35B8F3D40C64C4DD13000E3
:100A5C0000F0DDF9002848D0C34BC44908332360AB
:100A6C00019BC34A2361631DDF7723002C331D7068
:100A7C00C04B65600833A3630B68A5602573616187
:100A8C00A261E5612562E584258565852586E5639A
:100A9C002464002B04D1230038330B6006E00B00D8
:100AAC0059680029FBD12100383159600023A36417
:100ABC00B14BE464083363641368002B04D1230046
:100ACC004433136006E013005A68002AFBD122005D
:100ADC0044325A6022000023603230002365636583
:100AEC00A365E365138000F09FF923690021DA699F
:100AFC001869FFF71BFCA14AC36800261340C360AA
:100B0C00C3689F4A1340C36003699E4A1340036144
:100B1C0023699A69FC3351689A6A5B6A89B2D21A62
:100B2C00FF235B1A9A4206D22000E661FFF7B4FB62
:100B3C00002005B0F0BDE369226A9342F8DB200087
:100B4C00E661FFF7A9FB21690B00FC339A6A586A2E
:100B5C00151A072D03D80800FFF778FEE8E74D1C9F
:100B6C002F18FF7FBC46884FFF7FBC45F3D1203147
:100B7C00824203D9561E9E62AA18D67F9A6A002713
:100B8C00904203D2571E9F62AD18EF7F9A6A03AD55
:100B9C008A1809182800FFF78BFE2B78B34200D077
:100BAC00CBE06B782069BB4200D0C6E02030FFF769
:100BBC0093FE20692030FFF78FFE0700032850D1E9
:100BCC002100206926312030FFF71DFF210026006F
:100BDC0020692A312030FFF716FF628DE38C2C360A
:100BEC00D318013B9BB2520023853270012B04D9E0
:100BFC0002212000FFF7C0FE9AE721002069243172
:100C0C002030FFF776FE29002F70FFF772FE3100BF
:100C1C00FFF76FFE628D531E638523691800203029
:100C2C00002A09D0E38C5A1C28335B00E284E318B9
:100C3C009988FFF769FEEDE7FC339A6A596A8218C6
:100C4C0041182800FFF734FE206902AB591D2030F3
:100C5C00FFF74FFE2900FFF74CFE2069FFF763FEFC
:100C6C0066E7A31DDB7F0121102BC2D12100206977
:100C7C0026312030FFF7C7FE210020692A312030B1
:100C8C00FFF7C1FE2100628DE38C2C31D318013BA0
:100C9C009BB2520023850A70012BA9D82369180036
:100CAC00FC30426A866A964205D9561C013346626C
:100CBC009B18DB7F0B7000262069638D2030210090
:100CCC00B34215D82431FFF714FE21002531FFF76C
:100CDC0010FEE18CFFF718FE618DFFF715FE2369FE
:100CEC001900FC339A6A5B6A20318A18C918A8E784
:100CFC002E31FFF788FEE38CE18D9B19E2186032F0
:100D0C0010781A002C32002819D05700E75B08B273
:100D1C00019038B284460198604501DA002F08D161
:100D2C005200A2189288019817B2B84212DD002A1C
:100D3C0010D003212000FFF71FFE20690CE75000A4
:100D4C00205A814201D20028F3D15200A218928875
:100D5C009142ECD828335B000136E152B6B2ABE7D6
:100D6C00780100207C010020B4100008FC01002058
:100D7C00EC010020A81000089C100008FFFDFFFFEC
:100D8C00FFEFFFFFFFCFFFFF8101002000220A4B86
:100D9C000A491A605A600A4B59609A601968043201
:100DAC000A431A60022219680A431A600122196860
:100DBC000A431A607047C046080200203F19010020
:100DCC0010E000E0002103E00B4B5B584350043172
:100DDC000A480B4B42189A42F6D30A4A02E0002307
:100DEC0042F8043B084B9A42F9D3FFF7ADFB00F0F5
:100DFC001FF8FFF71FFE7047CC1000080000002002
:100E0C00000000200000002010020020FEE701235B
:100E1C0002681A4206D14278002A00D0FFDE4370E5
:100E2C00180070470020FCE70123036070470000A6
:100E3C0070B500260C4D0D4C641BA410A64209D1B4
:100E4C00002600F019F80A4D0A4C641BA410A642A7
:100E5C0005D170BDB300EB5898470136EEE7B300EF
:100E6C00EB5898470136F2E7C0100008C010000894
:100E7C00C0100008C8100008F8B5C046F8BC08BC83
:100E8C009E467047F8B5C046F8BC08BC9E467047F5
:100E9C0000C1814001C0804101C0804100C181403E
:100EAC0001C0804100C1814000C1814001C080412E
:100EBC0001C0804100C1814000C1814001C080411E
:100ECC0000C1814001C0804101C0804100C181400E
:100EDC0001C0804100C1814000C1814001C08041FE
:100EEC0000C1814001C0804101C0804100C18140EE
:100EFC0000C1814001C0804101C0804100C18140DE
:100F0C0001C0804100C1814000C1814001C08041CD
:100F1C0001C0804100C1814000C1814001C08041BD
:100F2C0000C1814001C0804101C0804100C18140AD
:100F3C0000C1814001C0804101C0804100C181409D
:100F4C0001C0804100C1814000C1814001C080418D
:100F5C0000C1814001C0804101C0804100C181407D
:100F6C0001C0804100C1814000C1814001C080416D
:100F7C0001C0804100C1814000C1814001C080415D
:100F8C0000C1814001C0804101C0804100C181404D
:100F9C0000C0C101C30302C2C60607C705C5C4040D
:100FAC00CC0C0DCD0FCFCE0E0ACACB0BC90908C87D
:100FBC00D81819D91BDBDA1A1EDEDF1FDD1D1CDC6D
:100FCC0014D4D515D71716D6D21213D311D1D010DD
:100FDC00F03031F133F3F23236F6F737F53534F4CD
:100FEC003CFCFD3DFF3F3EFEFA3A3BFB39F9F8383D
:100FFC0028E8E929EB2B2AEAEE2E2FEF2DEDEC2C2D
:10100C00E42425E527E7E62622E2E323E12120E09C
:10101C00A06061A163A3A26266A6A767A56564A48C
:10102C006CACAD6DAF6F6EAEAA6A6BAB69A9A868FC
:10103C0078B8B979BB7B7ABABE7E7FBF7DBDBC7CEC
:10104C00B47475B577B7B67672B2B373B17170B05C
:10105C00509091519353529296565797559594544C
:10106C009C5C5D9D5F9F9E5E5A9A9B5B99595898BC
:10107C00884849894B8B8A4A4E8E8F4F8D4D4C8CAC
:10108C00448485458747468682424383418180401C
:10109C000000000000000000A9080008000000008B
:1010AC00000000000D03000800000000000000001C
:0410BC0081020008A5
:0810C00035010008990D00083C
:0410C8000D0100080E
:0400000508000DD111
:00000001FF
