:020000040800F2
:1000000000500020A1020008E9020008E9020008EF
:10001000E9020008E9020008E90200080000000007
:10002000000000000000000000000000E9020008DD
:10003000E902000800000000E90200087101000860
:10004000E9020008E9020008E9020008E9020008E4
:10005000E9020008E9020008E9020008E9020008D4
:10006000E9020008E9020008E9020008E9020008C4
:10007000E9020008E9020008E9020008E9020008B4
:10008000E9020008E9020008E9020008E9020008A4
:10009000E9020008E9020008E9020008E902000894
:1000A000E9020008E9020008E9020008E902000884
:1000B000E9020008E9020008E9020008E902000874
:1000C000E9020008E9020008E9020008E902000864
:1000D000E9020008E9020008E9020008E902000854
:1000E000E9020008E9020008E90200080000000037
:1000F0000000000000000000000000000000000000
:0C01000000000000000000005FF808F1A3
:10010C0010B5064C2378002B07D1054B002B02D0E1
:10011C000448AFF300800123237010BD00000020C1
:10012C000000000044030008044B10B5002B03D062
:10013C0003490448AFF3008010BDC0460000000026
:10014C000400002044030008054B1A00FC325168DF
:10015C004018CB185060FF2800D9002318007047B6
:10016C001C000020054B10B51C68002C05D0236822
:10017C0020001B689847A468F7E710BD20010020F9
:10018C00802310221B0519680A4307211A601A687C
:10019C008A43110002220A431A608022194B520230
:1001AC0019680A431A601A689203FCD5F0215A6840
:1001BC008A435A605A68144911408022D2000A437B
:1001CC005A605A6811490A405A6080225968520292
:1001DC000A435A605A680E491140E02252030A43FE
:1001EC005A608022196852040A431A601A689201F4
:1001FC00FCD503215A688A43110002220A435A6033
:10020C007047C04600100240FFF8FFFFFFC7FFFF1A
:10021C00FFFFC3FF10B50820FFF796FF1023094A14
:10022C00002091690B43F0219361074B5A688A4374
:10023C00110020220A435A608022196992000A4355
:10024C001A6110BD0010024000100140822210B54E
:10025C00520000210B4800F067F800220A4B0B49B2
:10026C001A605A600A4B59609A60196804320A4342
:10027C001A60022219680A431A60012219680A439B
:10028C001A6010BD1C000020200100203F19010045
:10029C0010E000E0002103E00B4B5B5843500431AD
:1002AC000A480B4B42189A42F6D30A4A02E0002342
:1002BC0042F8043B084B9A42F9D3FFF761FF00F078
:1002CC000FF8FFF7A7FF7047680300080000002035
:1002DC00000000200000002028010020FEE70000A4
:1002EC0070B500260C4D0D4C641BA410A64209D110
:1002FC00002600F021F80A4D0A4C641BA410A642FB
:10030C0005D170BDB300EB5898470136EEE7B3004A
:10031C00EB5898470136F2E75C0300085C030008D1
:10032C005C0300086403000803001218934200D118
:10033C00704719700133F9E7F8B5C046F8BC08BC32
:10034C009E467047F8B5C046F8BC08BC9E46704740
:08035C003501000859020008F8
:040364000D0100087F
:04000005080002A14C
:00000001FF
