:020000040800F2
:10000000005000206D110008B5110008B51100085E
:10001000B5110008B5110008B51100080000000076
:10002000000000000000000000000000B511000802
:10003000B511000800000000B511000855040008C3
:10004000B5110008B5110008B5110008B511000878
:10005000B5110008B5110008B5110008B511000868
:10006000B5110008B5110008B5110008B511000858
:10007000B5110008B5110008B5110008B511000848
:10008000B5110008B5110008B5110008B511000838
:10009000B5110008B5110008B5110008B511000828
:1000A000B5110008B5110008B5110008B511000818
:1000B000B5110008B5110008B5110008B511000808
:1000C000B5110008B5110008B5110008B5110008F8
:1000D000B5110008B5110008B5110008B5110008E8
:1000E000B5110008B5110008B511000800000000A6
:1000F0000000000000000000000000000000000000
:0C01000000000000000000005FF808F1A3
:10010C0010B5064C2378002B07D1054B002B02D0E1
:10011C000448AFF300800123237010BD00000020C1
:10012C000000000058120008044B10B5002B03D03F
:10013C0003490448AFF3008010BDC0460000000026
:10014C0004000020581200080023C25C0133002A6E
:10015C00FBD1581E70470000002243088B4274D319
:10016C0003098B425FD3030A8B4244D3030B8B42AC
:10017C0028D3030C8B420DD3FF22090212BA030CB5
:10018C008B4202D31212090265D0030B8B4219D396
:10019C0000E0090AC30B8B4201D3CB03C01A5241B6
:1001AC00830B8B4201D38B03C01A5241430B8B42FE
:1001BC0001D34B03C01A5241030B8B4201D30B03E7
:1001CC00C01A5241C30A8B4201D3CB02C01A52410E
:1001DC00830A8B4201D38B02C01A5241430A8B42D1
:1001EC0001D34B02C01A5241030A8B4201D30B02BA
:1001FC00C01A5241CDD2C3098B4201D3CB01C01AD4
:10020C00524183098B4201D38B01C01A52414309DD
:10021C008B4201D34B01C01A524103098B4201D3CB
:10022C000B01C01A5241C3088B4201D3CB00C01A38
:10023C00524183088B4201D38B00C01A52414308B0
:10024C008B4201D34B00C01A5241411A00D20146D5
:10025C00524110467047FFE701B5002000F006F848
:10026C0002BDC0460029F7D076E770477047C046FC
:10027C00436901334361704770477047704770475B
:10028C007047704770477047482210B50300007ADA
:10029C005143114A002807D090681860814201D35D
:1002AC00081A5860002018721C68A14208D892687D
:1002BC000120A41AA14202D8012200201A7210BDFA
:1002CC00916801208C42FAD8516892688A1A596850
:1002DC008A42F1D2F3E7C04610E000E010B50A1AEA
:1002EC0002D0202100F0A9FF10BD10B5FFF72CFFA4
:1002FC0010BD012302684068116983400B431361F0
:10030C0070470123426810B51032934001680C69A4
:10031C0023430B6110BD036810B504009869FFF707
:10032C00F0FF64216068FFF7AFFF0028F9D1236864
:10033C009869FFF7DEFF64216068FFF7A5FF0028CE
:10034C00F9D110BD70B504000D000368ED001869FB
:10035C00FFF7D7FF23686068DA699B6AEB58136173
:10036C00FFF7D9FF23686068DA699B6A5D196B68CF
:10037C001361FFF7D0FF3221A068FFF785FF00283B
:10038C00F9D170BD70B5437B0400012B20D0002B3C
:10039C0002D0022B27D070BD4069FFF7B2FF206955
:1003AC00FFF7A7FF206B5021431C2363FFF75AFF75
:1003BC00114B8900256ACB58626AEB5CDB00D318C1
:1003CC001968E2695B681161E36201236373E2E718
:1003DC008069FFF78EFFA069FFF793FFE369E26A7C
:1003EC001A610223F2E78069FFF783FFA069FFF728
:1003FC0088FF0023EAE7C046F81200080368426849
:10040C00012090409B681840431E9841C0B2704731
:10041C0010B50468002C05D0236820001B68984791
:10042C00A468F7E710BD10B504000830FFF7F0FF23
:10043C0020696169431C2361FFF714FF002902D175
:10044C002000FFF7E5FF10BD10B50248FFF7EBFFEA
:10045C0010BDC0467401002041690269002391421D
:10046C0001D343610133180070470000037B002B5C
:10047C000DD00023426803738368002A0ED0002B32
:10048C0008D0936083685A60002343608360704790
:10049C000B60F8E7044993604A60F5E70249002BCA
:1004AC00F6D10B604B60EFE77401002070B50400CF
:1004BC00E37E0069002B0ED0FFF7A0FF002817D0B9
:1004CC002000FFF7D3FF0023636123766376A376C6
:1004DC000123236270BDFFF791FF051E08D1200098
:1004EC00FFF7C4FF656125766576A5762577EFE77E
:1004FC00636901336361EDE7002310B54361FFF7D6
:10050C00B5FF10BD037B002B0CD101330373064BDD
:10051C005A684260002A00D090601A685860002A1D
:10052C0000D118607047C0467401002070B50600F9
:10053C00437A04000C36002B05D00023C1614372B2
:10054C003000FFF7DFFF3000FFF786FF01250028A2
:10055C0004D03000FFF7D0FF65720025280070BD75
:10056C00F0B500268FB005AC05000C22310009A8AF
:10057C000596666000F061FE0123637223726B4680
:10058C00354FE661E760266200950194029503936E
:10059C00049414212000FFF7C9FF0028F9D1286921
:1005AC00FFF7AFFE6869FFF7ACFEA869FFF7A1FE85
:1005BC00AA6AEB69D26968461A61FFF7ACFE05219D
:1005CC002000FFF7B3FF0028F9D1AA6AEB69D269C2
:1005DC0068461A61FFF79FFE64212000FFF754FE66
:1005EC000028F9D1AA6AEB69D26968461A61FFF74B
:1005FC0092FE32212000FFF747FE0028F9D1AA6AAB
:10060C00EB69526968461A61FFF785FE32212000BA
:10061C00FFF73AFE0028F9D1282102A8FFF792FE35
:10062C000C2102A8FFF78EFE062102A8FFF78AFE16
:10063C00012102A8FFF786FE802102A8FFF782FEA7
:10064C0001212000FFF772FF0028F9D108A8E7600C
:10065C00FFF70CFF0FB0F0BD7812000810B50400C6
:10066C00E37E0069002B10D0FFF7C8FE002802D1F2
:10067C002000FFF747FF63690020092B04DD237E70
:10068C00834201D10130207610BDFFF7B7FE002860
:10069C00F1D0EDE7030010B5DB7E0069002B06D02E
:1006AC00FFF7ACFE030001205840C0B210BDFFF7AD
:1006BC00A5FEFBE710B504000068FFF7EBFF002870
:1006CC000AD06068FFF7E6FF002805D02068FFF726
:1006DC0019FF6068FFF716FF20684369653B622BC2
:1006EC0007D862685369653B622B02D801231377E4
:1006FC000377FFF7CFFF002801D0002010BD606802
:10070C00FFF7C8FF0028F8D123681A7F002A03D10D
:10071C006268127F002AF0D05A7E002AEDD16168FF
:10072C004A7E002AE9D10A7701201A77E6E7000011
:10073C0010221F4B19680A4307211A601A688A4352
:10074C00110002220A431A6080221A4B52021968C5
:10075C000A431A601A689203FCD5F0215A688A433E
:10076C005A605A68144911408022D2000A435A60D8
:10077C005A6812490A405A608022596852020A4348
:10078C005A605A680E491140E02252030A435A60DB
:10079C008022196852040A431A601A689201FCD527
:1007AC0003215A688A43110002220A435A60704797
:1007BC000020024000100240FFF8FFFFFFC7FFFFC0
:1007CC00FFFFC3FF70B515000C1A04D00100220006
:1007DC00280000F01FFD281970BD0300F0B50D3383
:1007EC0087B00193037B05000C001600002B2FD063
:1007FC00142703687B430293029A019B9A181329CE
:10080C001ED87F1A7F08D7197B1810003900039364
:10081C00FFF764FD31193A003000FFF7D3FF02995E
:10082C00019B143159180398FFF758FD00232B73C3
:10083C002B685A1C14235343AB60280007B0F0BD3F
:10084C00143C6408301901001431FFF7BBFFEDE7CD
:10085C0050218268019B891A9A1833190293A1427C
:10086C0007D919003000FFF7ADFFAB681C19AC605D
:10087C00E3E7270071183000FFF7A4FFAB68503F87
:10088C00FF18E41B36193000019A5036502F04D94A
:10089C003100FFF797FF503FF5E70299FFF792FF02
:1008AC00AB68DF19AF60C8E7F8B54A4C0500237890
:1008BC00BFF35B8FDB070CD4200000F076FC002824
:1008CC0007D0454B454A200013600423536000F0C9
:1008DC0079FC08230121424C424EA2691343A361C7
:1008EC003E4B414A1868A3690B43A36173681A40D5
:1008FC0080239B041343736003683C4A3C4E1A40AC
:10090C0080239B02134303603378BFF35B8F0B424E
:10091C000CD1300000F049FC002807D02E4B354A92
:10092C00300013600523536000F04CFC0823A269CF
:10093C00314F1343A3612F4B304A19680B681A408F
:10094C0080239B0313430B603B78BFF35B8F2C4ED0
:10095C00DB070BD4380000F028FC002806D01E4B17
:10096C00380033600623736000F02CFC0823A26966
:10097C001343A3613168234A0B681A4080239B04FC
:10098C0013430B60204B1B78BFF35B8F1F4FDB07B0
:10099C000BD41D4800F009FC002806D00E4B1A4859
:1009AC003B6007237B6000F00DFC08238021A269CB
:1009BC0089051343A3613A68280013681B011B09BE
:1009CC000B4313600B4B2F60AB60044B6E60EB6002
:1009DC00F8BDC04640000020000C0140440000203F
:1009EC000010024000000140FFFFFFF8FFFFF0FF86
:1009FC00340000203800002028000020FFFF0FFFEB
:100A0C002C000020FFFFFFF01C0000202000002025
:100A1C00F0B50126604B87B001901B78BFF35B8F5C
:100A2C005E4C334200D087E05B4800F0BEFB0028F0
:100A3C0000D181E05A4D2B78BFF35B8F594F334275
:100A4C000BD1280000F0B1FB002806D0564B280033
:100A5C003B600C237B6000F0B5FB1023534DAA695F
:100A6C001343AB613968524A4B681A4080239B028E
:100A7C0013434B604F4B1B78BFF35B8F4E4EDB0722
:100A8C000BD44C4800F091FB002806D04B4B494846
:100A9C0033600223736000F095FB2023AA69134393
:100AAC00AB613168464A0B68464E1A4080239B0066
:100ABC0013430B603378BFF35B8FDB070BD4300031
:100ACC0000F073FB002806D003223F4B3F49300057
:100ADC0006C300F077FB0823AA693B491343AB61BB
:100AEC000123AA6908681343394AAB615368394D2D
:100AFC001D4080239B042B4353600368364A1A40E5
:100B0C0080239B01134303600023344A6360083243
:100B1C002260294AA36062612C4A2373E261019A24
:100B2C001D4822622E4A637362622E4A2761A161BC
:100B3C00A262236300F046FB02A8FFF7B5FE20007B
:100B4C00FFF70EFD237B002B22D101332373264BA1
:100B5C00DA686260002A00D094609A68DC60002A2F
:100B6C0000D19C600A225A61204B093A19689143C2
:100B7C0019601F49596000219960186804310143BC
:100B8C001960022118680143196019680A431A6038
:100B9C00200007B0F0BDC046A0000020A40000203B
:100BAC00F0000020F4000020001001400010024072
:100BBC00FFFFF0FFE4000020E800002000140140DB
:100BCC00FFF0FFFFD8000020DC000020000C0140EB
:100BDC0000000140FFFFFFF8FF0FFFFF702400082B
:100BEC0070140008701C00087401002010E000E074
:100BFC001F1C0000B64AF0B504000023026001007F
:100C0C0002001D344360836003731032036143613F
:100C1C008361037785B006006D3120000192FFF7E8
:100C2C005DFB2000FFF7F4FE0122AA4B30671B7816
:100C3C00BFF35B8FA84C134239D1A64800F0B5FA2C
:100C4C00002834D00122A54F3B78BFF35B8FA44D15
:100C5C0013420BD1380000F0A8FA002806D0A14BA3
:100C6C0038002B6008236B6000F0ACFA08239E4A16
:100C7C00984891690B4393610F2229684B68934301
:100C8C001A0004231343994A4B600023226001226B
:100C9C006360A36023732561636123766376A37617
:100CAC00E376237722626362A36200F08BFA01225F
:100CBC008F4B74671B78BFF35B8F8E4C134239D10B
:100CCC008B4800F072FA002834D001228A4F3B780E
:100CDC00BFF35B8F894D13420BD1380000F065FADE
:100CEC00002806D07F4B38002B6009236B6000F086
:100CFC0069FA08237C4A7E4891690B439361F02280
:100D0C0029684B6893431A0040231343774A4B607E
:100D1C000023226001226360A36023732561636159
:100D2C0023766376A376E376237722626362A362EB
:100D3C0000F048FA00223000331DB46704339A6780
:100D4C00DA676F4B7C3002733100F36733009031FC
:100D5C008C331A600A6032321A60FFF7D3FB736F60
:100D6C00684C0293B36F03932378BFF35B8FDB075D
:100D7C000AD4200000F019FA002805D0624B634A0F
:100D8C002000136000F01EFA614C2378BFF35B8FD8
:100D9C00604DDB0709D4200000F007FA002804D0CE
:100DAC005D4B20002B6000F00DFA5C4C2378BFF3F8
:100DBC005B8F5B4FDB0709D4200000F0F6F90028AD
:100DCC0004D0584B20003B6000F0FCF9564C2378C3
:100DDC00BFF35B8FDB070AD4200000F0E6F9002894
:100DEC0005D0524B524A20001A6000F0EBF9514CDE
:100DFC002378BFF35B8FDB070AD4200000F0D5F912
:100E0C00002805D04C4B4D4A20001A6000F0DAF94E
:100E1C004B4C2378BFF35B8FDB070AD4200000F028
:100E2C00C4F9002805D0474B474A20001A6000F04F
:100E3C00C9F9464C2378BFF35B8FDB070AD420003B
:100E4C0000F0B3F9002805D0414B424A20001A604B
:100E5C0000F0B8F93300404A94331A60029A2B49D7
:100E6C005A60039A30009A60019A0C24DA603200BE
:100E7C00A4321160062151603849D560916031006F
:100E8C000922B830B4310A608460354C3549C460ED
:100E9C00264C016004610A244461334C4760846130
:100EAC00254C0262C461314C4462264C8462C2629D
:100EBC003200E832116026493000516000229A66F7
:100ECC00DA661A67FFF71EFB300005B0F0BDC046AE
:100EDC00A0120008380100203C010020680100200D
:100EEC006C010020000C014000100240841200082C
:100EFC00FC000020000100202C010020300100200B
:100F0C00781200084C000020F41200085000002059
:100F1C009400002098000020AC12000888000020EB
:100F2C008C000020B81200087C00002080000020FB
:100F3C00C41200087000002074000020D0120008B9
:100F4C006400002068000020DC120008580000201B
:100F5C005C000020E8120008901200083C14000805
:100F6C004D140008431400085A14000865140008B6
:100F7C0000B5C3B06846FFF73DFE30BFFDE710B5C6
:100F8C00006803681B68984710BD0000F0B50400AA
:100F9C00C06885B001000D305D31FFF79FF9002569
:100FAC0014260C226E43E06886600560236F1336AE
:100FBC00EB185343E31859699A69FFF70EFCE7687D
:100FCC000196BE604C4E3D603000FFF78EF932004A
:100FDC000100029038000396FFF7FFFBA36EAB42B3
:100FEC000ED1E768454E019B3D60BB603000FFF7BA
:100FFC007CF932000100029038000396FFF7EDFBFC
:10100C000135042DCCD16068FFF728FB002817D0E0
:10101C00E36E226F013B013AE3662267002A06DA8F
:10102C00A26E013AA266002A62DA02222267A26E3E
:10103C00002A01DA0322A266002B01DA0523E366FB
:10104C00A068FFF70BFB002817D0E36E5A1C236F28
:10105C00E26601332367052A01DD0022E266022BDA
:10106C0006DDA36E0133A366032B43DD0023236748
:10107C00A36E032B01DD0023A366636802A8029311
:10108C00A3680393FFF716FB002806D00C20E36E31
:10109C0058431C302018FFF772FF6568A6682800BB
:1010AC00FFF7F8FA00280AD03000FFF7F3FA00280F
:1010BC0005D02800FFF726FA3000FFF723FA104B73
:1010CC006A699A420EDD72699A420BDD6B7E002BC7
:1010DC0002D0737E002B05D1012373766B7600232F
:1010EC00A366E36620001030FFF749FF05B0F0BDA2
:1010FC0000229BE70223BAE7381400083A140008D0
:10110C00E703000010B504007C30FFF7A5F90028B8
:10111C0003D020009430FFF739FF10BD00220121CD
:10112C000C4B1A605A609A60DA601A6159610A4B6A
:10113C00186888431860094858609A601868043227
:10114C0002431A600222186802431A601A6811439B
:10115C00196070477401002010E000E03F19010095
:10116C00002103E00B4B5B58435004310A480B4BF6
:10117C0042189A42F6D30A4A02E0002342F8043B92
:10118C00084B9A42F9D3FFF7D3FA00F01FF8FFF798
:10119C00EFFE7047882400080000002000000020AB
:1011AC00000000208C010020FEE7012302681A4297
:1011BC0006D14278002A00D0FFDE43701800704739
:1011CC000020FCE7012303607047000070B5002687
:1011DC000C4D0D4C641BA410A64209D1002600F046
:1011EC0035F80A4D0A4C641BA410A64205D170BDFB
:1011FC00B300EB5898470136EEE7B300EB5898472D
:10120C000136F2E77C2400087C2400087C240008CA
:10121C008424000810B5884202D98B18984203D355
:10122C00002307E08B5C8354013AFBD210BDCC5CED
:10123C00C45401339A42FAD1F8E7030012189342CE
:10124C0000D1704719700133F9E70000F8B5C046BA
:10125C00F8BC08BC9E467047F8B5C046F8BC08BC44
:04126C009E467047E3
:1012700000000000000000007D02000800000000E7
:1012800000000000B9040008000000000000000099
:1012900085020008990F000800000000000000000F
:1012A0001111000800000000000000009302000877
:1012B0000000000000000000910200080000000093
:1012C000000000008F020008000000000000000085
:1012D0008D02000800000000000000008B020008E2
:1012E000000000000000000089020008000000006B
:1012F000000000008702000800000000010000005C
:1013000002000000030000000400000005000000CF
:1013100006000000070000000800000009000000AF
:101320000A0000000B0000000C0000000D0000008F
:101330000E0000000F00000010000000110000006F
:101340001200000013000000280000002900000027
:101350002A0000002B0000002C0000002D000000DF
:101360002E0000002F0000003000000031000000BF
:10137000320000003300000034000000350000009F
:10138000360000003700000038000000390000007F
:101390003A0000003B0000001400000015000000AF
:1013A00016000000170000001800000019000000DF
:1013B0001A0000001B0000001C0000001D000000BF
:1013C0001E0000001F00000020000000210000009F
:1013D000220000002300000024000000250000007F
:1013E00026000000270000003C0000003D00000037
:1013F0003E0000003F0000004000000041000000EF
:1014000042000000430000004400000045000000CE
:1014100046000000470000004800000049000000AE
:101420004A0000004B0000004C0000004D0000008E
:101430004E0000004F00000020007E00C0E2E0F0FF
:10144000E8E800CDE0F0E0E1EEF2EAE000CAEEED1F
:10145000F4E8E3F3F0E0F6E8FF00CBEEE320F0E0A1
:10146000E1EEF2FB00CDE0F1F2F0EEE9EAE8000097
:101470000000F0000000F0000000F0001000E000AC
:101480000000F0002000D0000000F0003000C0009C
:101490000000F0004000B0000000F0005000A0008C
:1014A0000000F000600090000000F000700080007C
:1014B0000000F000800070000000F000900060006C
:1014C0000000F000A00050000000F000B00040005C
:1014D0000000F000C00030000000F000D00020004C
:1014E0000000F000E00010000000F000F00000003C
:1014F0001000E0000000F0001000E0001000E0002C
:101500001000E0002000D0001000E0003000C0001B
:101510001000E0004000B0001000E0005000A0000B
:101520001000E000600090001000E00070008000FB
:101530001000E000800070001000E00090006000EB
:101540001000E000A00050001000E000B0004000DB
:101550001000E000C00030001000E000D0002000CB
:101560001000E000E00010001000E000F0000000BB
:101570002000D0000000F0002000D0001000E000AB
:101580002000D0002000D0002000D0003000C0009B
:101590002000D0004000B0002000D0005000A0008B
:1015A0002000D000600090002000D000700080007B
:1015B0002000D000800070002000D000900060006B
:1015C0002000D000A00050002000D000B00040005B
:1015D0002000D000C00030002000D000D00020004B
:1015E0002000D000E00010002000D000F00000003B
:1015F0003000C0000000F0003000C0001000E0002B
:101600003000C0002000D0003000C0003000C0001A
:101610003000C0004000B0003000C0005000A0000A
:101620003000C000600090003000C00070008000FA
:101630003000C000800070003000C00090006000EA
:101640003000C000A00050003000C000B0004000DA
:101650003000C000C00030003000C000D0002000CA
:101660003000C000E00010003000C000F0000000BA
:101670004000B0000000F0004000B0001000E000AA
:101680004000B0002000D0004000B0003000C0009A
:101690004000B0004000B0004000B0005000A0008A
:1016A0004000B000600090004000B000700080007A
:1016B0004000B000800070004000B000900060006A
:1016C0004000B000A00050004000B000B00040005A
:1016D0004000B000C00030004000B000D00020004A
:1016E0004000B000E00010004000B000F00000003A
:1016F0005000A0000000F0005000A0001000E0002A
:101700005000A0002000D0005000A0003000C00019
:101710005000A0004000B0005000A0005000A00009
:101720005000A000600090005000A00070008000F9
:101730005000A000800070005000A00090006000E9
:101740005000A000A00050005000A000B0004000D9
:101750005000A000C00030005000A000D0002000C9
:101760005000A000E00010005000A000F0000000B9
:10177000600090000000F000600090001000E000A9
:10178000600090002000D000600090003000C00099
:10179000600090004000B000600090005000A00089
:1017A0006000900060009000600090007000800079
:1017B0006000900080007000600090009000600069
:1017C00060009000A000500060009000B000400059
:1017D00060009000C000300060009000D000200049
:1017E00060009000E000100060009000F000000039
:1017F000700080000000F000700080001000E00029
:10180000700080002000D000700080003000C00018
:10181000700080004000B000700080005000A00008
:1018200070008000600090007000800070008000F8
:1018300070008000800070007000800090006000E8
:1018400070008000A000500070008000B0004000D8
:1018500070008000C000300070008000D0002000C8
:1018600070008000E000100070008000F0000000B8
:10187000800070000000F000800070001000E000A8
:10188000800070002000D000800070003000C00098
:10189000800070004000B000800070005000A00088
:1018A0008000700060009000800070007000800078
:1018B0008000700080007000800070009000600068
:1018C00080007000A000500080007000B000400058
:1018D00080007000C000300080007000D000200048
:1018E00080007000E000100080007000F000000038
:1018F000900060000000F000900060001000E00028
:10190000900060002000D000900060003000C00017
:10191000900060004000B000900060005000A00007
:1019200090006000600090009000600070008000F7
:1019300090006000800070009000600090006000E7
:1019400090006000A000500090006000B0004000D7
:1019500090006000C000300090006000D0002000C7
:1019600090006000E000100090006000F0000000B7
:10197000A00050000000F000A00050001000E000A7
:10198000A00050002000D000A00050003000C00097
:10199000A00050004000B000A00050005000A00087
:1019A000A000500060009000A00050007000800077
:1019B000A000500080007000A00050009000600067
:1019C000A0005000A0005000A0005000B000400057
:1019D000A0005000C0003000A0005000D000200047
:1019E000A0005000E0001000A0005000F000000037
:1019F000B00040000000F000B00040001000E00027
:101A0000B00040002000D000B00040003000C00016
:101A1000B00040004000B000B00040005000A00006
:101A2000B000400060009000B000400070008000F6
:101A3000B000400080007000B000400090006000E6
:101A4000B0004000A0005000B0004000B0004000D6
:101A5000B0004000C0003000B0004000D0002000C6
:101A6000B0004000E0001000B0004000F0000000B6
:101A70004000B0001000E000A00050000000F000A6
:101A80004000B0002000D000A00050001000E00096
:101A9000E00010000000F0004000B0005000A00086
:101AA000A00050003000C000A00050004000B00076
:101AB000A00050005000A000A00050006000900066
:101AC0004000B000B0004000A00050007000800056
:101AD0004000B000D00020004000B0008000700046
:101AE0004000B000F0000000A00050008000700036
:101AF0005000A0000000F0004000B0003000C00026
:101B00005000A0004000B000A00050009000600015
:101B1000A0005000A00050005000A0008000700005
:101B2000E00010001000E000A0005000B0004000F5
:101B3000A0005000C0003000E00010002000D000E5
:101B4000A0005000D0002000A0005000E0001000D5
:101B5000A0005000D0002000A0005000F0000000C5
:101B6000B00040000000F000B00040001000E000B5
:101B7000600090001000E000B00040002000D000A5
:101B8000B00040003000C000B00040004000B00095
:101B9000E00010003000C000600090005000A00085
:101BA000B000400060009000B00040007000800075
:101BB000B000400080007000B00040009000600065
:101BC000B0004000A0005000B0004000B000400055
:101BD000B0004000C0003000B0004000D000200045
:101BE00060009000F0000000B0004000E000100035
:101BF000700080000000F000600090003000C00025
:101C0000B0004000F0000000700080009000600014
:101C1000E00010004000B000700080008000700004
:101C2000E00010005000A000C00030000000F000F4
:101C3000C00030001000E000E000100060009000E4
:101C4000C00030002000D000C00030003000C000D4
:101C5000C00030004000B000C00030005000A000C4
:101C6000C000300060009000C000300070008000B4
:101C70000000F0000000F0000000F0001000E000A4
:101C80000000F0002000D0000000F0003000C00094
:101C90000000F0004000B0000000F0005000A00084
:101CA0000000F000600090000000F0007000800074
:101CB0000000F000800070000000F0009000600064
:101CC0000000F000A00050000000F000B000400054
:101CD0000000F000C00030000000F000D000200044
:101CE0000000F000E00010000000F000F000000034
:101CF0001000E0000000F0001000E0001000E00024
:101D00001000E0002000D0001000E0003000C00013
:101D10001000E0004000B0001000E0005000A00003
:101D20001000E000600090001000E00070008000F3
:101D30001000E000800070001000E00090006000E3
:101D40001000E000A00050001000E000B0004000D3
:101D50001000E000C00030001000E000D0002000C3
:101D60001000E000E00010001000E000F0000000B3
:101D70002000D0000000F0002000D0001000E000A3
:101D80002000D0002000D0002000D0003000C00093
:101D90002000D0004000B0002000D0005000A00083
:101DA0002000D000600090002000D0007000800073
:101DB0002000D000800070002000D0009000600063
:101DC0002000D000A00050002000D000B000400053
:101DD0002000D000C00030002000D000D000200043
:101DE0002000D000E00010002000D000F000000033
:101DF0003000C0000000F0003000C0001000E00023
:101E00003000C0002000D0003000C0003000C00012
:101E10003000C0004000B0003000C0005000A00002
:101E20003000C000600090003000C00070008000F2
:101E30003000C000800070003000C00090006000E2
:101E40003000C000A00050003000C000B0004000D2
:101E50003000C000C00030003000C000D0002000C2
:101E60003000C000E00010003000C000F0000000B2
:101E70004000B0000000F0004000B0001000E000A2
:101E80004000B0002000D0004000B0003000C00092
:101E90004000B0004000B0004000B0005000A00082
:101EA0004000B000600090004000B0007000800072
:101EB0004000B000800070004000B0009000600062
:101EC0004000B000A00050004000B000B000400052
:101ED0004000B000C00030004000B000D000200042
:101EE0004000B000E00010004000B000F000000032
:101EF0005000A0000000F0005000A0001000E00022
:101F00005000A0002000D0005000A0003000C00011
:101F10005000A0004000B0005000A0005000A00001
:101F20005000A000600090005000A00070008000F1
:101F30005000A000800070005000A00090006000E1
:101F40005000A000A00050005000A000B0004000D1
:101F50005000A000C00030005000A000D0002000C1
:101F60005000A000E00010005000A000F0000000B1
:101F7000600090000000F000600090001000E000A1
:101F8000600090002000D000600090003000C00091
:101F9000600090004000B000600090005000A00081
:101FA0006000900060009000600090007000800071
:101FB0006000900080007000600090009000600061
:101FC00060009000A000500060009000B000400051
:101FD00060009000C000300060009000D000200041
:101FE00060009000E000100060009000F000000031
:101FF000700080000000F000700080001000E00021
:10200000700080002000D000700080003000C00010
:10201000700080004000B000700080005000A00000
:1020200070008000600090007000800070008000F0
:1020300070008000800070007000800090006000E0
:1020400070008000A000500070008000B0004000D0
:1020500070008000C000300070008000D0002000C0
:1020600070008000E000100070008000F0000000B0
:10207000800070000000F000800070001000E000A0
:10208000800070002000D000800070003000C00090
:10209000800070004000B000800070005000A00080
:1020A0008000700060009000800070007000800070
:1020B0008000700080007000800070009000600060
:1020C00080007000A000500080007000B000400050
:1020D00080007000C000300080007000D000200040
:1020E00080007000E000100080007000F000000030
:1020F000900060000000F000900060001000E00020
:10210000900060002000D000900060003000C0000F
:10211000900060004000B000900060005000A000FF
:1021200090006000600090009000600070008000EF
:1021300090006000800070009000600090006000DF
:1021400090006000A000500090006000B0004000CF
:1021500090006000C000300090006000D0002000BF
:1021600090006000E000100090006000F0000000AF
:10217000A00050000000F000A00050001000E0009F
:10218000A00050002000D000A00050003000C0008F
:10219000A00050004000B000A00050005000A0007F
:1021A000A000500060009000A0005000700080006F
:1021B000A000500080007000A0005000900060005F
:1021C000A0005000A0005000A0005000B00040004F
:1021D000A0005000C0003000A0005000D00020003F
:1021E000A0005000E0001000A0005000F00000002F
:1021F000B00040000000F000B00040001000E0001F
:10220000B00040002000D000B00040003000C0000E
:10221000B00040004000B000B00040005000A000FE
:10222000B000400060009000B000400070008000EE
:10223000B000400080007000B000400090006000DE
:10224000B0004000A0005000B0004000B0004000CE
:10225000B0004000C0003000B0004000D0002000BE
:10226000B0004000E0001000B0004000F0000000AE
:10227000C00030000000F000C00030001000E0009E
:10228000C00030002000D000C00030003000C0008E
:10229000C00030004000B000C00030005000A0007E
:1022A000C000300060009000C0003000700080006E
:1022B000C000300080007000C0003000900060005E
:1022C000C0003000A0005000C0003000B00040004E
:1022D000C0003000C0003000C0003000D00020003E
:1022E000C0003000E0001000C0003000F00000002E
:1022F000D00020000000F000D00020001000E0001E
:10230000D00020002000D000D00020003000C0000D
:10231000D00020004000B000D00020005000A000FD
:10232000D000200060009000D000200070008000ED
:10233000D000200080007000D000200090006000DD
:10234000D0002000A0005000D0002000B0004000CD
:10235000D0002000C0003000D0002000D0002000BD
:10236000D0002000E0001000D0002000F0000000AD
:10237000E00010000000F000E00010001000E0009D
:10238000E00010002000D000E00010003000C0008D
:10239000E00010004000B000E00010005000A0007D
:1023A000E000100060009000E0001000700080006D
:1023B000E000100080007000E0001000900060005D
:1023C000E0001000A0005000E0001000B00040004D
:1023D000E0001000C0003000E0001000D00020003D
:1023E000E0001000E0001000E0001000F00000002D
:1023F000F00000000000F000F00000001000E0001D
:10240000F00000002000D000F00000003000C0000C
:10241000F00000004000B000F00000005000A000FC
:10242000F000000060009000F000000070008000EC
:10243000F000000080007000F000000090006000DC
:10244000F0000000A0005000F0000000B0004000CC
:10245000F0000000C0003000F0000000D0002000BC
:10246000F0000000E0001000F0000000F0000000AC
:0C247000000000000000000091030008C4
:08247C003501000829110008D8
:042484000D0100083E
:040000050800116D71
:00000001FF
