:020000040800F2
:1000000000500020ED01000835020008350200080C
:100010003502000835020008350200080000000023
:100020000000000000000000000000003502000891
:100030003502000800000000350200083502000803
:1000400035020008350200083502000835020008B4
:1000500035020008350200083502000835020008A4
:100060003502000835020008350200083502000894
:100070003502000835020008350200083502000884
:100080003502000835020008350200083502000874
:100090003502000835020008350200083502000864
:1000A0003502000835020008350200083502000854
:1000B0003502000835020008350200083502000844
:1000C0003502000835020008350200083502000834
:1000D0003502000835020008350200083502000824
:1000E0003502000835020008350200080000000053
:1000F0000000000000000000000000000000000000
:0C01000000000000000000005FF808F1A3
:10010C0010B5064C2378002B07D1054B002B02D0E1
:10011C000448AFF300800123237010BD00000020C1
:10012C000000000080020008044B10B5002B03D027
:10013C0003490448AFF3008010BDC0460000000026
:10014C00040000208002000810221F4B19680A438B
:10015C0007211A601A688A43110002220A431A60A6
:10016C0080221A4B520219680A431A601A689203C9
:10017C00FCD5F0215A688A435A605A6814491140D8
:10018C008022D2000A435A605A6812490A405A60C7
:10019C008022596852020A435A605A680E4911402B
:1001AC00E02252030A435A608022196852040A431F
:1001BC001A601A689201FCD503215A688A4311000F
:1001CC0002220A435A60704700200240001002408D
:1001DC00FFF8FFFFFFC7FFFFFFFFC3FF00207047C3
:1001EC00002103E00B4B5B58435004310A480B4B86
:1001FC0042189A42F6D30A4A02E0002342F8043B22
:10020C00084B9A42F9D3FFF79FFF00F00FF8FFF766
:10021C00E5FF7047A002000800000020000000204D
:10022C00000000201C000020FEE7000070B5002636
:10023C000C4D0D4C641BA410A64209D1002600F0F5
:10024C0019F80A4D0A4C641BA410A64205D170BDC6
:10025C00B300EB5898470136EEE7B300EB589847DC
:10026C000136F2E79802000898020008980200088C
:10027C009C020008F8B5C046F8BC08BC9E46704706
:0C028C00F8B5C046F8BC08BC9E467047A0
:040298003501000824
:04029C000D01000848
:04000005080001ED01
:00000001FF
